{
  "transactions": [
    {
      "hash": "0x789ac5cbd7b25cb42ff38ebdd915ebef3feb46ca03d3a716e263619bcbff07a4",
      "transactionType": "CALL",
      "contractName": null,
      "contractAddress": "0xa0f6bae73523c5777da7f0a37d018de406a2249c",
      "function": "stopSale()",
      "arguments": [],
      "transaction": {
        "from": "0x9b5dcaa3002d77fb9dedfc1006838d08977a3432",
        "to": "0xa0f6bae73523c5777da7f0a37d018de406a2249c",
        "gas": "0xff63",
        "value": "0x0",
        "input": "0xe36b0b37",
        "nonce": "0x69",
        "chainId": "0x61"
      },
      "additionalContracts": [],
      "isFixedGasLimit": false
    },
    {
      "hash": "0x14db44ecdd2e487bd46b376fa4231cd47b552bd3b6cae4460dd1321fd146363d",
      "transactionType": "CALL",
      "contractName": null,
      "contractAddress": "0xa0f6bae73523c5777da7f0a37d018de406a2249c",
      "function": "startSale(uint256,uint256,uint256,uint256)",
      "arguments": [
        "1749556800",
        "1000000000000000000",
        "6250000000000000",
        "100000000000000000000000"
      ],
      "transaction": {
        "from": "0x9b5dcaa3002d77fb9dedfc1006838d08977a3432",
        "to": "0xa0f6bae73523c5777da7f0a37d018de406a2249c",
        "gas": "0x2cf04",
        "value": "0x0",
        "input": "0x4a24edd60000000000000000000000000000000000000000000000000000000068481e400000000000000000000000000000000000000000000000000de0b6b3a76400000000000000000000000000000000000000000000000000000016345785d8a00000000000000000000000000000000000000000000000152d02c7e14af6800000",
        "nonce": "0x6a",
        "chainId": "0x61"
      },
      "additionalContracts": [],
      "isFixedGasLimit": false
    }
  ],
  "receipts": [
    {
      "status": "0x1",
      "cumulativeGasUsed": "0x4fb84",
      "logs": [
        {
          "address": "0xa0f6bae73523c5777da7f0a37d018de406a2249c",
          "topics": [
            "0xe4c7ed2774fa299f356229771518fbb7f9e2729daab98474e212d17dd0e1be0f",
            "0x0000000000000000000000000000000000000000000000000000000000000001"
          ],
          "data": "0x",
          "blockHash": "0x0d0635ba864521cff2e6ff14f98beac5a8e2a6e32c93715f8b32ec006123c02c",
          "blockNumber": "0x33c963f",
          "transactionHash": "0x789ac5cbd7b25cb42ff38ebdd915ebef3feb46ca03d3a716e263619bcbff07a4",
          "transactionIndex": "0x1",
          "logIndex": "0x5",
          "removed": false
        }
      ],
      "logsBloom": "0x00000000000000000000000000000000000000000000000000000000000000000000000000000000000000000000000000000000000000000000000000040000000000200000000000000000000000000000000000040000000000000000000200000000000000000000000000000000000000000000000000000400000000000000000000000000000000000000000008000000000000000000000000000000000000000000000000000000000000000000000000000000000000000000000000000000000000000000000000000000000000000000000000000800000840000000000000000000000000000000000000000000000000000000000000000000",
      "type": "0x0",
      "transactionHash": "0x789ac5cbd7b25cb42ff38ebdd915ebef3feb46ca03d3a716e263619bcbff07a4",
      "transactionIndex": "0x1",
      "blockHash": "0x0d0635ba864521cff2e6ff14f98beac5a8e2a6e32c93715f8b32ec006123c02c",
      "blockNumber": "0x33c963f",
      "gasUsed": "0xb8e6",
      "effectiveGasPrice": "0x3b9aca00",
      "from": "0x9b5dcaa3002d77fb9dedfc1006838d08977a3432",
      "to": "0xa0f6bae73523c5777da7f0a37d018de406a2249c",
      "contractAddress": null
    },
    {
      "status": "0x1",
      "cumulativeGasUsed": "0x1eba3",
      "logs": [
        {
          "address": "0xa0f6bae73523c5777da7f0a37d018de406a2249c",
          "topics": [
            "0xc7d29e22bb9d46d5ec47fa287139b46e844668370fa433fd857eac3f9c29b962",
            "0x0000000000000000000000000000000000000000000000000000000000000002"
          ],
          "data": "0x0000000000000000000000000000000000000000000000000000000068481e400000000000000000000000000000000000000000000000000de0b6b3a76400000000000000000000000000000000000000000000000000000016345785d8a00000000000000000000000000000000000000000000000152d02c7e14af6800000",
          "blockHash": "0x75bf1c0afab658e72b9a390894204e2c3185cf8f18da54ed0c92255a0c957365",
          "blockNumber": "0x33c9643",
          "transactionHash": "0x14db44ecdd2e487bd46b376fa4231cd47b552bd3b6cae4460dd1321fd146363d",
          "transactionIndex": "0x0",
          "logIndex": "0x0",
          "removed": false
        }
      ],
      "logsBloom": "0x04000000000000000000000000000000000000000000000000000000000000000000000000000000000000000000000000000000000000000000000000000000000400000000000000000000000000000000000000000000000000000000000000000000000000000000000000000000000000000000080000000000000000000000000000000000000000000000000008000000000000000000000000000000000000000000000000000100000200000000000000000000000000000000000000000000000000000000000000000000000000000000000000000800000800000000000000000000000000000000000000000000008000000000000000000000",
      "type": "0x0",
      "transactionHash": "0x14db44ecdd2e487bd46b376fa4231cd47b552bd3b6cae4460dd1321fd146363d",
      "transactionIndex": "0x0",
      "blockHash": "0x75bf1c0afab658e72b9a390894204e2c3185cf8f18da54ed0c92255a0c957365",
      "blockNumber": "0x33c9643",
      "gasUsed": "0x1eba3",
      "effectiveGasPrice": "0x3b9aca00",
      "from": "0x9b5dcaa3002d77fb9dedfc1006838d08977a3432",
      "to": "0xa0f6bae73523c5777da7f0a37d018de406a2249c",
      "contractAddress": null
    }
  ],
  "libraries": [],
  "pending": [],
  "returns": {},
  "timestamp": 1749555878,
  "chain": 97,
  "commit": "91844f6"
}