{
  "transactions": [
    {
      "hash": "0x09e67a2c40915e8322894dfb4a0d1d7ac411e8bfb0c4e5290acc8548f1dd8ad9",
      "transactionType": "CALL",
      "contractName": null,
      "contractAddress": "0xa0f6bae73523c5777da7f0a37d018de406a2249c",
      "function": "startSale(uint256,uint256,uint256,uint256)",
      "arguments": [
        "1748943000",
        "1000000000000000000",
        "500000000000000000",
        "150000000000000000000000"
      ],
      "transaction": {
        "from": "0x9b5dcaa3002d77fb9dedfc1006838d08977a3432",
        "to": "0xa0f6bae73523c5777da7f0a37d018de406a2249c",
        "gas": "0x2c27b",
        "value": "0x0",
        "input": "0x4a24edd600000000000000000000000000000000000000000000000000000000683ec0980000000000000000000000000000000000000000000000000de0b6b3a764000000000000000000000000000000000000000000000000000006f05b59d3b20000000000000000000000000000000000000000000000001fc3842bd1f071c00000",
        "nonce": "0x64",
        "chainId": "0x61"
      },
      "additionalContracts": [],
      "isFixedGasLimit": false
    }
  ],
  "receipts": [
    {
      "status": "0x1",
      "cumulativeGasUsed": "0x1e311",
      "logs": [
        {
          "address": "0xa0f6bae73523c5777da7f0a37d018de406a2249c",
          "topics": [
            "0xc7d29e22bb9d46d5ec47fa287139b46e844668370fa433fd857eac3f9c29b962",
            "0x0000000000000000000000000000000000000000000000000000000000000001"
          ],
          "data": "0x00000000000000000000000000000000000000000000000000000000683ec0980000000000000000000000000000000000000000000000000de0b6b3a764000000000000000000000000000000000000000000000000000006f05b59d3b20000000000000000000000000000000000000000000000001fc3842bd1f071c00000",
          "blockHash": "0x5e08c63d326e7e8f1e7ceeaba11f5f766720f2f036426303c4bd077b17b27947",
          "blockNumber": "0x3301535",
          "transactionHash": "0x09e67a2c40915e8322894dfb4a0d1d7ac411e8bfb0c4e5290acc8548f1dd8ad9",
          "transactionIndex": "0x0",
          "logIndex": "0x0",
          "removed": false
        }
      ],
      "logsBloom": "0x00000000000000000000000000000000000000000000000000000000000000000000000000000000000000000000000000000000000000000000000000040000000400000000000000000000000000000000000000040000000000000000000000000000000000000000000000000000000000000000080000000000000000000000000000000000000000000000000008000000000000000000000000000000000000000000000000000000000200000000000000000000000000000000000000000000000000000000000000000000000000000000000000000800000840000000000000000000000000000000000000000000000000000000000000000000",
      "type": "0x0",
      "transactionHash": "0x09e67a2c40915e8322894dfb4a0d1d7ac411e8bfb0c4e5290acc8548f1dd8ad9",
      "transactionIndex": "0x0",
      "blockHash": "0x5e08c63d326e7e8f1e7ceeaba11f5f766720f2f036426303c4bd077b17b27947",
      "blockNumber": "0x3301535",
      "gasUsed": "0x1e311",
      "effectiveGasPrice": "0x3b9aca00",
      "from": "0x9b5dcaa3002d77fb9dedfc1006838d08977a3432",
      "to": "0xa0f6bae73523c5777da7f0a37d018de406a2249c",
      "contractAddress": null
    }
  ],
  "libraries": [],
  "pending": [],
  "returns": {},
  "timestamp": 1748941207,
  "chain": 97,
  "commit": "61be77c"
}